:0C0000000C9474000C94D8000C940000C8
:10000C000C9400000C9400000C9400000C94000064
:10001C000C9400000C9400000C9400000C94000054
:10002C000C9400000C9400000C9400000C94000044
:10003C000C9400000C9400000C9400000C94000034
:10004C000C9400000C9400001027E80364000A00D4
:10005C000100001000011000010000000000000071
:10006C0000000000FEFDFBF73738392F3435362AF7
:10007C003132332D43303D2B2A203D206E65787470
:10008C002070616765004E6F20686973746F7279B8
:10009C00002564002563004C657427732063616C34
:1000AC0063756C617465210080C00A0004006600F1
:1000BC000400980270001000B00274000E00600280
:1000CC0084000B006E0292000E0079028400110075
:1000DC008702A3000200C002B4000000F894EE27CF
:1000EC00ECBBF1E0FBBFEBBFE5BF8DE0A2E0BB27B3
:1000FC00ED938A95E9F780E098E0A0E6ED930197FF
:10010C00E9F7E6EBF0E085919591009761F0A59108
:10011C00B59105901590BF01F00105900D920197D6
:10012C00E1F7FB01F0CFEFE5EDBFE8E0EEBFC0E695
:10013C00D2E00C946B021A930A9383E08A95F1F740
:10014C0010E0143060F50FEFE12FF0E0E856FD4FB2
:10015C00E081E8BB83E08A95F1F7B49906C0E4E04E
:10016C00E19FF001E055FD4F5080B59906C0E4E0E9
:10017C00E19FF001EF54FD4F5080B69906C0E4E0CA
:10018C00E19FF001EE54FD4F5080B79906C0E4E0BA
:10019C00E19FF001ED54FD4F50801F5FD2CF0991CC
:1001AC00199108950A921A92FA926A937A938A9301
:1001BC009A93AA93BA93EA93FA93EFB7EA93F894C3
:1001CC00BADFEFE0E7BBE0EFE8BB552009F46EC106
:1001DC00E3E4E515A1F46624772488249924AA2461
:1001EC00BB240E94B402E0E0E093AE02E093AF02C5
:1001FC006624772488249924CC24DD2456C1EFE28C
:10020C00E515E1F40E94E204309781F0E0E0E09320
:10021C00AC02E093AD02E1E0F0E0E093AE02F093CB
:10022C00AF020E94B402A0E6B2E004C00E94B40285
:10023C00AEE6B2E00E94E202229637C1EAE2E51590
:10024C0009F068C00E94EB04119709F062C00E948B
:10025C00E204A091AC02B091AD02AE17BF070CF056
:10026C0052C027970E94F00431960E94F704ED8348
:10027C00FE830E94F0043296DF010E94DB05EC83C2
:10028C000E94F00433960E94F704EA83FB830E94D9
:10029C00F00434960E94F704E883F983E091AC02F1
:1002AC00F091AD023196E093AC02F093AD020E9456
:1002BC00B4020E94FC040E940105E985FA850E94A3
:1002CC000605E0EAF0E0FA93EA93E885FF27662753
:1002DC0077270E9413050E940105EE81FF810E9481
:1002EC000605E0EAF0E0FA93EA93EDE3F0E060E073
:1002FC0070E00E9413050E940105EC81FD810E94B3
:10030C001E05279605C0E0E0E093AC02E093AD0239
:10031C002296CBC0A52DEBE20E94A8050E2EEDE295
:10032C000E94A8050E2A0E942A0529F0452CE1E01E
:10033C00F0E06F01B8C0A52DEDE30E94A8050E2ECC
:10034C000E942A0509F49AC02297A0E0B0E00E940E
:10035C00DB05F0E0E883F983A881B9811A9709F0ED
:10036C0056C02297E0E0E883E983A881B981199708
:10037C000CF042C028970E94310531960E94F70478
:10038C00EE83FF830E94310532960E94F704EC83C2
:10039C00FD830E94310533960E94F704EA83FB83A8
:1003AC000E94310534960E94F704E883F983AAE091
:1003BC00B0E00E948C050E9439053196DF01EE8178
:1003CC000E943E053296DF01EC810E943E05339679
:1003DC00DF01EA810E943E053496DF01E8810E942C
:1003EC00E705AAE0B0E00E948C052896E881F98127
:1003FC003196E883F983B9CFA0E0B0E0E9E00E9440
:10040C00E705EA81FB813197EA83FB832296CC24B2
:10041C00DD24A52DB1D0EBE2E41521F4F401E60DB9
:10042C00F71D06C0EDE2E41521F4F301E819F90912
:10043C005F010E94FC040E940105F5010E941E054B
:10044C000E9441053196DF01E62D0E944605329649
:10045C00DF01E42D0E9446053396DF01E82D0E9452
:10046C0046053496DF01EA2D0E94E705E881EF5F2F
:10047C00A0E0B0E00E94E705229617C00E94EB04B2
:10048C00119729F46BD0A9E7B2E096D00EC00C2CD2
:10049C000D2829F4F3010E9449053D0104C0F40123
:1004AC000E9449054D01A52D67D055247894E991FA
:1004BC00EFBFF991E991B991A991999189917991AC
:1004CC006991F990199009901895A0E186D046D0C1
:1004DC00A7E8B2E071D0A8EEB3E00E948C053ED044
:1004EC007894EBB7E064EBBFE5B7E260E5BFEFE013
:1004FC00E7BBE0EFE8BBFFCFFFCFAA93EBB3EF7006
:10050C00AE2FE881E07FEA2BEBBB82E08A95F1F716
:10051C00DA9A82E08A95F1F7DA9882E08A95F1F717
:10052C0088C0AA93A881E9DFE881E295E883A881D5
:10053C00E4DF81E18A95F1F77CC0AA93E881F0E0D1
:10054C00E054FD4FE081A981AE0FEBDFE981E09330
:10055C00C402E881E093C50222960895A2E00E94AD
:10056C005305ACE0DEDFA1E00E945305E0E0E09330
:10057C00C502E093C4020895AA93A881AA3031F071
:10058C00E091C602A091C402AE1760F0E0E0EA93DD
:10059C00A091C502AF5FA093C502CFDFA881AA309E
:1005AC0009F447C0E091C402EF5FE093C402D89A0B
:1005BC00A881B7DFD8983DC0BA93AA931A93A981A2
:1005CC00BA81ED91A983BA831E2FE03019F0A12FC7
:1005DC00D3DFF5CF188123960895AA93EAB3E06F81
:1005EC00EABBD29AD09AD19ADA98D898D998E8815D
:1005FC00E093C602E058E093C202E881E054E09335
:10060C00C302A4E1B0E00E948C050E9459050E942F
:10061C0059050E945905A0E270DF81E28A95F1F735
:10062C00A8E27FDFA4E07DDFA5E87BDFA6E079DF31
:10063C0095DF21960895BA93AA931A930A93AA81E7
:10064C00BB8112960E94CE05309759F1AA81BB81CD
:10065C0014960E94CE058F01309761F00230E0E0D5
:10066C001E0798F0F80131978F01AA81BB8114966F
:10067C00ED93FC93AA81BB811296ED91FD9131967D
:10068C00FE93EE933197AC81A083AA81BB810E942B
:10069C00CE05FF232AF0ED91FD913196FE93EE935A
:1006AC0006C0AA81BB81EFEFFFEFED93FC9319819C
:1006BC00088125960895BA93AA9326970E94F80567
:1006CC0010E0AC85BD85E0E0F0E0ED93FC93EA89A9
:1006DC00FB893196EA8BFB8B3197E4912E2FE0301E
:1006EC0009F415C1E12FE03039F4253211F411E091
:1006FC0002C00E9460050AC1E130A9F4253219F448
:10070C000E94600502C112E040E000E02D3211F4BD
:10071C0001E0FCC02B3211F44BE2F8C0203211F492
:10072C0040E2F4C002C0E23039F450E013E0203370
:10073C0011F40068EBC003C0E33009F0E7C02033CC
:10074C0010F02A3308F007C0AAE05A9F502DE22F70
:10075C00E0535E0FDBC0E22FE33649F40E946705DD
:10076C00E889F989A481AA930E946D05CEC0E3376C
:10077C0041F40E9467050E9473050E94C9041E2F54
:10078C000AC0E03761F40E9467050E9473050E945D
:10079C00D5041E2F086002600F7730E034C0E436B9
:1007AC0011F0E93611F4046002C0E53731F4E4E5E8
:1007BC00F0E0EE83FF8315E00CC0E83511F408601F
:1007CC0003C0E83709F0A1C0EEE5F0E0EE83FF834B
:1007DC0014E002FF14C00E9467050E947D05AB85E2
:1007EC00AA233AF4EA85FB850E949A05EA87FB87DF
:1007FC004DE2403011F01F5F01C00B7F04C00E941E
:10080C0067050E947D0500FD11C0151778F407FFE0
:10081C0008C002FF04C00B7F242F115001C020E33D
:10082C0001C020E20E9460055150EFCF312F01FF33
:10083C0017C03030A1F003FF06C0EE81FF81259177
:10084C00EE83FF8305C0AE81BF812D91AE83BF8344
:10085C000E946005503009F051503150EACF4BC026
:10086C0020E3EE81FF810E94D205E887F987EE81B3
:10087C00FF813296EE83FF83E885F985AA85BB85D7
:10088C00AE17BF0750F02F5FA885B985EA85FB85A9
:10089C00EA1BFB0BEA87FB87EFCF2A3328F003FF19
:1008AC0002C0295F01C0295D04FD1AC0213320F468
:1008BC00A885B985119709F409C0531710F000FFEA
:1008CC0001C013C020E207FF0BC020E3006102FF50
:1008DC0007C00B7F4A930E946D05503009F05150B0
:1008EC000E946005503009F051503150A885B985EF
:1008FC00129708F0B5CF00FF08C0503031F05150BE
:10090C00E0E2EA930E946D05F8CF10E0E0CEAC85F2
:10091C00BD850E94CE050E94FF0564960895FF9246
:10092C00F82E26970E94FA050E948505309719F437
:10093C00EFEFFFEF23C0DE0116960E9496058D01A6
:10094C000E948505EE83FF83E0E0E887E987DE01FE
:10095C001A960E9496050E94CE05FA93EA931A9372
:10096C000A93E1E2F3E0FA93EA93DE011A96A3DE2E
:10097C009F01AE81BF81E0E0EC93F9010E9401067A
:10098C002A96FF900895BA93AA93A991B991EE274C
:10099C00FF276D91662311F03196FBCF0895BA9322
:1009AC00AA93AA27BB27E991F9910590002011F091
:1009BC001196FBCFFD0108952297A0E0B0E00E94B4
:1009CC00DB05F0E0E883F9830895A091AE02B091C5
:1009DC00AF020895E091AC02F091AD020E949E0529
:1009EC000895DF010E94DB05F0E00895ECE9F2E0E8
:1009FC00FA93EA930895EDE9F0E0FA93EA930895F7
:100A0C000E94A3050E94D60584E00E9495042896B6
:100A1C00ACE9B2E00E94E202E9CF0E94D60584E084
:100A2C000E9495042896ACE9B2E00E94E202DECF67
:100A3C000E94A3050E94D60584E00E949504289686
:100A4C00ACE9B2E00C94E202C0DFE0E0F0E00E941E
:100A5C00AD05E0210895A885B9851196E4E0F0E094
:100A6C000E94BB050895E885F9850E949E050895AE
:100A7C000E94E705F8CFE881F9810E949E05089550
:100A8C000E94E705F8CFAAE0B0E00E94BB05DF01A9
:100A9C00EE27A50DBE1FD09708950E949702A3E0E4
:100AAC00B0E00C948C05A0E30E94830281E28A954D
:100ABC00F1F708952A93AD85BE85EF85F8890995E0
:100ACC000895E889F9893497E88BF98B0895AD85F9
:100ADC00BE85EF85F88909950895A889B98914967A
:100AEC000E94CE05EE83FF83AE81BF810895A88955
:100AFC00B98914960E94CE05EA87FB870895DE011A
:100B0C001C960E9496050E94CE050895109639F009
:100B1C00A8958AEF90E00197F1F71197C9F708951E
:100B2C000024AF0DB01D0895F195E195F0400895A6
:100B3C00EE0FFF1FEE0FFF1F08956F2F660F660B52
:100B4C00762F0895EA17E1E009F0EE270895EA17E9
:100B5C00FB07E1E009F0EE270895FA9FF02DEB9FDB
:100B6C00F00DEA9FE02DF10D089504D0F6DF0EF4A0
:100B7C00DBDF0895E894F7FF02C0D6DF6894B7FF77
:100B8C0006C0A095B095119600F8039400FA08954C
:100B9C00ED91FC91119708950590F491E02D089535
:100BAC007A936A93FA93EA930895E199FECFFF93AF
:100BBC00FFB7F894AEBBBFBBE09AEDB3FFBFFF919C
:100BCC000895E19B02C0A895FCCF9FB7F894AEBBEB
:100BDC00BFBBE09A8DB3E81719F0EDBBE29AE19A2E
:100BEC009FBF08955A934A933A932A931A930A9360
:100BFC0008955D814C813B812A811981088108957A
:00000001FF
