:0A0000000C946F000C94D3000C94D4
:10000A0000000C9400000C9400000C9400000C9466
:10001A0000000C9400000C9400000C9400000C9456
:10002A0000000C9400000C9400000C9400000C9446
:10003A0000000C9400000C9400000C9400000C9436
:10004A0000000C9400000C9400001027E8036400E0
:10005A000A00010000100001100001000000000069
:10006A00000000000000FEFDFBF73738392F343559
:10007A00362A3132332D43303D2B2A203D206E65FE
:10008A0078742070616765004E6F20686973746FB9
:10009A00727900256400256300537461727400004C
:1000AA0080C00A000400660004008D02700010007F
:1000BA00A50274000E00600284000B006E0292001A
:1000CA000E007902840006008702A3000200B5022E
:1000DA00AA000000F894EE27ECBBF1E0FBBFEBBFEF
:1000EA00E5BF8DE0A2E0BB27ED938A95E9F780E0B2
:1000FA0098E0A0E6ED930197E9F7ECEAF0E0859144
:10010A009591009761F0A591B59105901590BF0161
:10011A00F00105900D920197E1F7FB01F0CFEFE5B1
:10012A00EDBFE8E0EEBFC0E6D2E00C9405021A93F8
:10013A000A9383E08A95F1F710E0143060F50FEF27
:10014A00E12FF0E0E357FD4FE081E8BB83E08A95B9
:10015A00F1F7B49906C0E4E0E19FF001EB55FD4FD9
:10016A005080B59906C0E4E0E19FF001EA55FD4FE1
:10017A005080B69906C0E4E0E19FF001E955FD4FD1
:10018A005080B79906C0E4E0E19FF001E855FD4FC1
:10019A0050801F5FD2CF0991199108950A921A923D
:1001AA00FA926A937A938A939A93AA93BA93EA935E
:1001BA00FA93EFB7EA93F894BADFEFE0E7BBE0EF20
:1001CA00E8BB552009F40DC1E3E4E51571F4662492
:1001DA00772488249924AA24BB240E945302E0E0AD
:1001EA00E093A302E093A402FBC0EFE2E515E1F479
:1001FA000E948104309781F0E0E0E093A102E0934D
:10020A00A202E1E0F0E0E093A302F093A4020E94CC
:10021A005302A0E6B2E004C00E945302AEE6B2E086
:10022A000E9481022296DCC0EAE2E51509F068C064
:10023A000E948A04119709F062C00E948104A09169
:10024A00A102B091A202AE17BF070CF052C02797C5
:10025A000E948F0431960E949604ED83FE830E94C9
:10026A008F043296DF010E946A05EC830E948F0494
:10027A0033960E949604EA83FB830E948F04349685
:10028A000E949604E883F983E091A102F091A20208
:10029A003196E093A102F093A2020E9453020E94B7
:1002AA009B040E94A004E985FA850E94A504E0EA5D
:1002BA00F0E0FA93EA93E885FF27662777270E94FA
:1002CA00B2040E94A004EE81FF810E94A504E0EA24
:1002DA00F0E0FA93EA93EDE3F0E060E070E00E9468
:1002EA00B2040E94A004EC81FD810E94BD042796FD
:1002FA0005C0E0E0E093A102E093A202229670C05A
:10030A00A52DEBE20E9437050E2EEDE20E9437057D
:10031A000E2A0E94C90429F0452CE1E0F0E06F01A1
:10032A005DC0A52DEDE30E9437050E2E0E94C9047B
:10033A0009F43FC02297A0E0B0E00E946A05F0E00D
:10034A00E883F983CC24DD24A52DB6D0EBE2E415AD
:10035A0021F4F401E60DF71D06C0EDE2E41521F4DF
:10036A00F301E819F9095F010E949B040E94A004A5
:10037A00F5010E94BD040E94D0043196DF01E62DEA
:10038A000E94D5043296DF01E42D0E94D5043396EB
:10039A00DF01E82D0E94D5043496DF01EA2D0E9480
:1003AA007605E881EF5FA0E0B0E00E94760522962C
:1003BA0017C00E948A04119729F470D0A9E7B2E005
:1003CA009BD00EC00C2C0D2829F4F3010E94D804EE
:1003DA003D0104C0F4010E94D8044D01A52D6CD042
:1003EA0055247894E991EFBFF991E991B991A991CE
:1003FA009991899179916991F99019900990189533
:10040A00A0E0B0E0E0E00E947605A0E186D046D008
:10041A00A7E8B2E071D0A8EEB3E00E941B053ED077
:10042A007894EBB7E064EBBFE5B7E260E5BFEFE0D5
:10043A00E7BBE0EFE8BBFFCFFFCFAA93EBB3EF70C8
:10044A00AE2FE881E07FEA2BEBBB82E08A95F1F7D9
:10045A00DA9A82E08A95F1F7DA9882E08A95F1F7DA
:10046A0088C0AA93A881E9DFE881E295E883A88198
:10047A00E4DF81E18A95F1F77CC0AA93E881F0E094
:10048A00EB54FD4FE081A981AE0FEBDFE981E093E8
:10049A00B902E881E093BA0222960895A2E00E9486
:1004AA00E204ACE0DEDFA1E00E94E204E0E0E093D7
:1004BA00BA02E093B9020895AA93A881AA3031F04A
:1004CA00E091BB02A091B902AE1760F0E0E0EA93B6
:1004DA00A091BA02AF5FA093BA02CFDFA881AA3077
:1004EA0009F447C0E091B902EF5FE093B902D89AE4
:1004FA00A881B7DFD8983DC0BA93AA931A93A98165
:10050A00BA81ED91A983BA831E2FE03019F0A12F89
:10051A00D3DFF5CF188123960895AA93EAB3E06F43
:10052A00EABBD29AD09AD19ADA98D898D998E8811F
:10053A00E093BB02E058E093B702E881E054E0930D
:10054A00B802A4E1B0E00E941B050E94E8040E94E0
:10055A00E8040E94E804A0E270DF81E28A95F1F7DC
:10056A00A8E27FDFA4E07DDFA5E87BDFA6E079DFF4
:10057A0095DF21960895BA93AA931A930A93AA81AA
:10058A00BB8112960E945D05309759F1AA81BB8101
:10059A0014960E945D058F01309761F00230E0E009
:1005AA001E0798F0F80131978F01AA81BB81149632
:1005BA00ED93FC93AA81BB811296ED91FD91319640
:1005CA00FE93EE933197AC81A083AA81BB810E94EE
:1005DA005D05FF232AF0ED91FD913196FE93EE938E
:1005EA0006C0AA81BB81EFEFFFEFED93FC9319815F
:1005FA00088125960895BA93AA9326970E9487059B
:10060A0010E0AC85BD85E0E0F0E0ED93FC93EA896B
:10061A00FB893196EA8BFB8B3197E4912E2FE030E0
:10062A0009F415C1E12FE03039F4253211F411E053
:10063A0002C00E94EF040AC1E130A9F4253219F47C
:10064A000E94EF0402C112E040E000E02D3211F4F2
:10065A0001E0FCC02B3211F44BE2F8C0203211F455
:10066A0040E2F4C002C0E23039F450E013E0203333
:10067A0011F40068EBC003C0E33009F0E7C020338F
:10068A0010F02A3308F007C0AAE05A9F502DE22F33
:10069A00E0535E0FDBC0E22FE33649F40E94F60412
:1006AA00E889F989A481AA930E94FC04CEC0E337A1
:1006BA0041F40E94F6040E9402050E9468041E2F5B
:1006CA000AC0E03761F40E94F6040E9402050E9403
:1006DA0074041E2F086002600F7730E034C0E436DD
:1006EA0011F0E93611F4046002C0E53731F4E4E5AB
:1006FA00F0E0EE83FF8315E00CC0E83511F40860E2
:10070A0003C0E83709F0A1C0EEE5F0E0EE83FF830D
:10071A0014E002FF14C00E94F6040E940C05AB8587
:10072A00AA233AF4EA85FB850E942905EA87FB8712
:10073A004DE2403011F01F5F01C00B7F04C00E94E0
:10074A00F6040E940C0500FD11C0151778F407FF86
:10075A0008C002FF04C00B7F242F115001C020E300
:10076A0001C020E20E94EF045150EFCF312F01FF68
:10077A0017C03030A1F003FF06C0EE81FF8125913A
:10078A00EE83FF8305C0AE81BF812D91AE83BF8307
:10079A000E94EF04503009F051503150EACF4BC05B
:1007AA0020E3EE81FF810E946105E887F987EE81E7
:1007BA00FF813296EE83FF83E885F985AA85BB859A
:1007CA00AE17BF0750F02F5FA885B985EA85FB856C
:1007DA00EA1BFB0BEA87FB87EFCF2A3328F003FFDC
:1007EA0002C0295F01C0295D04FD1AC0213320F42B
:1007FA00A885B985119709F409C0531710F000FFAD
:10080A0001C013C020E207FF0BC020E3006102FF12
:10081A0007C00B7F4A930E94FC04503009F05150E4
:10082A000E94EF04503009F051503150A885B98523
:10083A00129708F0B5CF00FF08C0503031F0515080
:10084A00E0E2EA930E94FC04F8CF10E0E0CEAC8527
:10085A00BD850E945D050E948E0564960895FF92EB
:10086A00F82E26970E9489050E941405309719F4DC
:10087A00EFEFFFEF23C0DE0116960E9425058D01DA
:10088A000E941405EE83FF83E0E0E887E987DE0132
:10089A001A960E9425050E945D05FA93EA931A9317
:1008AA000A93E0ECF2E0FA93EA93DE011A96A3DEE9
:1008BA009F01AE81BF81E0E0EC93F9010E949005AF
:1008CA002A96FF900895BA93AA93A991B991EE270F
:1008DA00FF276D91662311F03196FBCF0895BA93E5
:1008EA00AA93AA27BB27E991F9910590002011F054
:1008FA001196FBCFFD0108952297A0E0B0E00E9477
:10090A006A05F0E0E883F9830895A091A302B09103
:10091A00A4020895E091A102F091A2020E942D057D
:10092A000895DF010E946A05F0E00895E1E9F2E026
:10093A00FA93EA930895EDE9F0E0FA93EA930895B9
:10094A000E9432050E94650584E00E9434042896BC
:10095A00A1E9B2E00E948102E9CF0E94650584E024
:10096A000E9434042896A1E9B2E00E948102DECFF7
:10097A000E9432050E94650584E00E94340428968C
:10098A00A1E9B2E00C948102C0DFE0E0F0E00E944D
:10099A003C05E0210895E881F9810E942D0508951A
:1009AA000E947605F8CFAAE0B0E00E944A05DF016E
:1009BA00EE27A50DBE1FD09708950E943602A3E028
:1009CA00B0E00C941B05A0E30E94220281E28A9502
:1009DA00F1F708952A93AD85BE85EF85F8890995C3
:1009EA000895E889F9893497E88BF98B0895AD85DC
:1009FA00BE85EF85F88909950895A889B98914965D
:100A0A000E945D05EE83FF83AE81BF810895A889A8
:100A1A00B98914960E945D05EA87FB870895DE016D
:100A2A001C960E9425050E945D050895109639F0CE
:100A3A00A8958AEF90E00197F1F71197C9F7089501
:100A4A000024AF0DB01D0895F195E195F040089589
:100A5A00EE0FFF1FEE0FFF1F08956F2F660F660B35
:100A6A00762F0895EA17E1E009F0EE270895EA17CC
:100A7A00FB07E1E009F0EE270895FA9FF02DEB9FBE
:100A8A00F00DEA9FE02DF10D089504D0F6DF0EF483
:100A9A00DBDF0895E894F7FF02C0D6DF6894B7FF5A
:100AAA0006C0A095B095119600F8039400FA08952F
:100ABA00ED91FC91119708950590F491E02D089518
:100ACA007A936A93FA93EA930895E199FECFFF9392
:100ADA00FFB7F894AEBBBFBBE09AEDB3FFBFFF917F
:100AEA000895E19B02C0A895FCCF9FB7F894AEBBCE
:100AFA00BFBBE09A8DB3E81719F0EDBBE29AE19A11
:100B0A009FBF08955A934A933A932A931A930A9342
:100B1A0008955D814C813B812A811981088108955C
:00000001FF
